:1000370012009F1200D2309804E599C2987F0112EE
:1000470000038E088F097FFF1200F2AF091200F23A
:08005700E508FF1200F280DE53
:10009F00E5A2543FF5A27598DA75D7E875D6FF75C6
:0A00AF008E14438E01D2ACD2AF22B2
:0A00FD00A298B340FBC298AF99220D
:0B00F200EFF599A299B340FBC29922E0
:10005F008B0C8A0D890EAB0CAA0DA90E1200B9607C
:10006F0013050EE50E7002050D14F91200B9FF12FB
:05007F0000F280E22206
:10000300E4F50AF50BEF4488F5BC000000007F140B
:100013007E00120084E5BC30E4FB53BCEFAFBD753A
:100023000A008F0BAFBEEF250BF50BE4350AF50A7B
:03003300FEAF0B12
:0100360022A7
:1000D20075910CE4F592759D0CF5BD75BC807F029F
:0400E200FE02008496
:10008400EF1FAA0670011E4A60107C137D88ED1DC7
:0A009400AA0470011C4A60E880F421
:01009E00223F
:030000000200E615
:0C00E600787FE4F6D8FD75810E0200372B
:1000B900BB010689828A83E0225002E722BBFE0245
:0900C900E32289828A83E4932278
:00000001FF
