:10005B001200281200007F0412000012007780F6B5
:10002800E5A2543FF5A27598DA75D7E875D6FF753D
:0A0038008E14438E01D2ACD2AF2229
:0A008200A298B340FBC298AF992288
:0B007700EFF599A299B340FBC299225B
:100003008B088A09890AAB08AA09A90A1200426067
:1000130013050AE50A7002050914F9120042FF12DA
:05002300007780E222DD
:0300000002006B90
:0C006B00787FE4F6D8FD75810A02005B86
:10004200BB010689828A83E0225002E722BBFE02BC
:09005200E32289828A83E49322EF
:00000001FF
