:10024900E5A254CFF5A2E4F5D875D90875DA4CC200
:08025900D8F5E9F5F9C2DE2237
:02012600A90727
:10012800E4FDFC7B078BEA75FA0174072BFB74016D
:1001380033FAD2DEE914600B0470107515007516D9
:1001480064800E7515007516C8800675150175163C
:1001580090A2D8B340FBC2D88BEAEAFF8FFA7407A3
:100168002BFB74013AFA0DBD00010CC3ED9516E5A1
:10017800156480F8EC64809840D7C2DEE4FCFD0D7D
:0C018800BD00010CBC07F8BDD0F57F01E4
:010194002248
:02021C00AE072B
:10021E00900000AF82EEA807088003A2E713D8FB78
:10022E0030E0047F018002E4FF120126A3C3E582C1
:0A023E009408E5836480948040D9A1
:010248002293
:0A0195008B0E8A0F89108C118D1259
:10019F007F02120126E4F513F514C3E5149512E559
:1001AF00116480F8E513648098501DAB0EAA0FA957
:1001BF00108514828513831200F9FF12021C051497
:0A01CF00E51470D6051380D27F01FD
:0101D9002203
:04026D0031323300F7
:1001DA0078087C007D007BFF7A02796D7E007F04BF
:1001EA001200D3E4F50CF50D1202497B007A00796E
:1001FA00087D037C00120195E4F50CF50D050DE56B
:10020A000D7002050CC39430E50C648094F540ED42
:02021A0080D989
:0300000002026198
:0C026100787FE4F6D8FD7581160201DA02
:10000300E709F608DFFA8046E709F208DFFA803EDF
:1000130088828C83E709F0A3DFFA8032E309F608CC
:10002300DFFA8078E309F208DFFA807088828C8334
:10003300E309F0A3DFFA806489828A83E0A3F608E8
:10004300DFFA805889828A83E0A3F208DFFA804CC2
:1000530080D280FA80C680D4806980F28033801099
:1000630080A680EA809A80A880DA80E280CA803302
:1000730089828A83ECFAE493A3C8C582C8CCC5837A
:10008300CCF0A3C8C582C8CCC583CCDFE9DEE7804A
:100093000D89828A83E493A3F608DFF9ECFAA9F0C9
:1000A300EDFB2289828A83ECFAE0A3C8C582C8CC1F
:1000B300C583CCF0A3C8C582C8CCC583CCDFEADE38
:1000C300E880DB89828A83E493A3F208DFF980CC9A
:1000D30088F0EF60010E4E60C388F0ED2402B40493
:1000E3000050B9F582EB2402B4040050AF2323453A
:0600F3008223900053730C
:1000F900BB010CE58229F582E5833AF583E02250BC
:1001090006E92582F8E622BBFE06E92582F8E22205
:0D011900E58229F582E5833AF583E493221F
:00000001FF
